{
  "contractName": "Aadhar",
  "abi": [
    {
      "inputs": [
        {
          "internalType": "address",
          "name": "",
          "type": "address"
        }
      ],
      "name": "Details",
      "outputs": [
        {
          "internalType": "string",
          "name": "name",
          "type": "string"
        },
        {
          "internalType": "uint256",
          "name": "age",
          "type": "uint256"
        },
        {
          "internalType": "string",
          "name": "gender",
          "type": "string"
        },
        {
          "internalType": "string",
          "name": "state",
          "type": "string"
        },
        {
          "internalType": "string",
          "name": "district",
          "type": "string"
        }
      ],
      "stateMutability": "view",
      "type": "function",
      "constant": true
    },
    {
      "inputs": [
        {
          "internalType": "string",
          "name": "_name",
          "type": "string"
        },
        {
          "internalType": "uint256",
          "name": "_age",
          "type": "uint256"
        },
        {
          "internalType": "string",
          "name": "_gender",
          "type": "string"
        },
        {
          "internalType": "string",
          "name": "_state",
          "type": "string"
        },
        {
          "internalType": "string",
          "name": "_district",
          "type": "string"
        }
      ],
      "name": "enter",
      "outputs": [],
      "stateMutability": "nonpayable",
      "type": "function"
    },
    {
      "inputs": [
        {
          "internalType": "address",
          "name": "_id",
          "type": "address"
        }
      ],
      "name": "Get",
      "outputs": [
        {
          "internalType": "string",
          "name": "",
          "type": "string"
        },
        {
          "internalType": "uint256",
          "name": "",
          "type": "uint256"
        },
        {
          "internalType": "string",
          "name": "",
          "type": "string"
        },
        {
          "internalType": "string",
          "name": "",
          "type": "string"
        },
        {
          "internalType": "string",
          "name": "",
          "type": "string"
        }
      ],
      "stateMutability": "view",
      "type": "function",
      "constant": true
    }
  ],
  "bytecode": "0x608060405234801561001057600080fd5b50610db2806100206000396000f3fe608060405234801561001057600080fd5b50600436106100415760003560e01c806334b1633414610046578063b4ab2e7114610062578063e88cc2be14610096575b600080fd5b610060600480360381019061005b919061082b565b6100ca565b005b61007c60048036038101906100779190610974565b6101a1565b60405161008d959493929190610a2f565b60405180910390f35b6100b060048036038101906100ab9190610974565b610445565b6040516100c1959493929190610a2f565b60405180910390f35b60003390506040518060a00160405280878152602001868152602001858152602001848152602001838152506000808373ffffffffffffffffffffffffffffffffffffffff1673ffffffffffffffffffffffffffffffffffffffff16815260200190815260200160002060008201518160000190816101499190610caa565b506020820151816001015560408201518160020190816101699190610caa565b50606082015181600301908161017f9190610caa565b5060808201518160040190816101959190610caa565b50905050505050505050565b60606000606080606060008060008873ffffffffffffffffffffffffffffffffffffffff1673ffffffffffffffffffffffffffffffffffffffff168152602001908152602001600020905080600001816001015482600201836003018460040184805461020d90610acd565b80601f016020809104026020016040519081016040528092919081815260200182805461023990610acd565b80156102865780601f1061025b57610100808354040283529160200191610286565b820191906000526020600020905b81548152906001019060200180831161026957829003601f168201915b5050505050945082805461029990610acd565b80601f01602080910402602001604051908101604052809291908181526020018280546102c590610acd565b80156103125780601f106102e757610100808354040283529160200191610312565b820191906000526020600020905b8154815290600101906020018083116102f557829003601f168201915b5050505050925081805461032590610acd565b80601f016020809104026020016040519081016040528092919081815260200182805461035190610acd565b801561039e5780601f106103735761010080835404028352916020019161039e565b820191906000526020600020905b81548152906001019060200180831161038157829003601f168201915b505050505091508080546103b190610acd565b80601f01602080910402602001604051908101604052809291908181526020018280546103dd90610acd565b801561042a5780601f106103ff5761010080835404028352916020019161042a565b820191906000526020600020905b81548152906001019060200180831161040d57829003601f168201915b50505050509050955095509550955095505091939590929450565b600060205280600052604060002060009150905080600001805461046890610acd565b80601f016020809104026020016040519081016040528092919081815260200182805461049490610acd565b80156104e15780601f106104b6576101008083540402835291602001916104e1565b820191906000526020600020905b8154815290600101906020018083116104c457829003601f168201915b5050505050908060010154908060020180546104fc90610acd565b80601f016020809104026020016040519081016040528092919081815260200182805461052890610acd565b80156105755780601f1061054a57610100808354040283529160200191610575565b820191906000526020600020905b81548152906001019060200180831161055857829003601f168201915b50505050509080600301805461058a90610acd565b80601f01602080910402602001604051908101604052809291908181526020018280546105b690610acd565b80156106035780601f106105d857610100808354040283529160200191610603565b820191906000526020600020905b8154815290600101906020018083116105e657829003601f168201915b50505050509080600401805461061890610acd565b80601f016020809104026020016040519081016040528092919081815260200182805461064490610acd565b80156106915780601f1061066657610100808354040283529160200191610691565b820191906000526020600020905b81548152906001019060200180831161067457829003601f168201915b5050505050905085565b6000604051905090565b600080fd5b600080fd5b600080fd5b600080fd5b6000601f19601f8301169050919050565b7f4e487b7100000000000000000000000000000000000000000000000000000000600052604160045260246000fd5b610702826106b9565b810181811067ffffffffffffffff82111715610721576107206106ca565b5b80604052505050565b600061073461069b565b905061074082826106f9565b919050565b600067ffffffffffffffff8211156107605761075f6106ca565b5b610769826106b9565b9050602081019050919050565b82818337600083830152505050565b600061079861079384610745565b61072a565b9050828152602081018484840111156107b4576107b36106b4565b5b6107bf848285610776565b509392505050565b600082601f8301126107dc576107db6106af565b5b81356107ec848260208601610785565b91505092915050565b6000819050919050565b610808816107f5565b811461081357600080fd5b50565b600081359050610825816107ff565b92915050565b600080600080600060a08688031215610847576108466106a5565b5b600086013567ffffffffffffffff811115610865576108646106aa565b5b610871888289016107c7565b955050602061088288828901610816565b945050604086013567ffffffffffffffff8111156108a3576108a26106aa565b5b6108af888289016107c7565b935050606086013567ffffffffffffffff8111156108d0576108cf6106aa565b5b6108dc888289016107c7565b925050608086013567ffffffffffffffff8111156108fd576108fc6106aa565b5b610909888289016107c7565b9150509295509295909350565b600073ffffffffffffffffffffffffffffffffffffffff82169050919050565b600061094182610916565b9050919050565b61095181610936565b811461095c57600080fd5b50565b60008135905061096e81610948565b92915050565b60006020828403121561098a576109896106a5565b5b60006109988482850161095f565b91505092915050565b600081519050919050565b600082825260208201905092915050565b60005b838110156109db5780820151818401526020810190506109c0565b60008484015250505050565b60006109f2826109a1565b6109fc81856109ac565b9350610a0c8185602086016109bd565b610a15816106b9565b840191505092915050565b610a29816107f5565b82525050565b600060a0820190508181036000830152610a4981886109e7565b9050610a586020830187610a20565b8181036040830152610a6a81866109e7565b90508181036060830152610a7e81856109e7565b90508181036080830152610a9281846109e7565b90509695505050505050565b7f4e487b7100000000000000000000000000000000000000000000000000000000600052602260045260246000fd5b60006002820490506001821680610ae557607f821691505b602082108103610af857610af7610a9e565b5b50919050565b60008190508160005260206000209050919050565b60006020601f8301049050919050565b600082821b905092915050565b600060088302610b607fffffffffffffffffffffffffffffffffffffffffffffffffffffffffffffffff82610b23565b610b6a8683610b23565b95508019841693508086168417925050509392505050565b6000819050919050565b6000610ba7610ba2610b9d846107f5565b610b82565b6107f5565b9050919050565b6000819050919050565b610bc183610b8c565b610bd5610bcd82610bae565b848454610b30565b825550505050565b600090565b610bea610bdd565b610bf5818484610bb8565b505050565b5b81811015610c1957610c0e600082610be2565b600181019050610bfb565b5050565b601f821115610c5e57610c2f81610afe565b610c3884610b13565b81016020851015610c47578190505b610c5b610c5385610b13565b830182610bfa565b50505b505050565b600082821c905092915050565b6000610c8160001984600802610c63565b1980831691505092915050565b6000610c9a8383610c70565b9150826002028217905092915050565b610cb3826109a1565b67ffffffffffffffff811115610ccc57610ccb6106ca565b5b610cd68254610acd565b610ce1828285610c1d565b600060209050601f831160018114610d145760008415610d02578287015190505b610d0c8582610c8e565b865550610d74565b601f198416610d2286610afe565b60005b82811015610d4a57848901518255600182019150602085019450602081019050610d25565b86831015610d675784890151610d63601f891682610c70565b8355505b6001600288020188555050505b50505050505056fea264697066735822122037efa167b5e870fa477e0161c82bf62eb95cd97fab21591e2f3a632c469a5e5764736f6c63430008130033",
  "immutableReferences": {},
  "source": "pragma solidity ^0.8.19;  \r\ncontract Aadhar{\r\n    struct Detail{\r\n       \r\n        string name;\r\n        uint256 age;\r\n        string gender;\r\n\r\n        string state;\r\n        string district;\r\n\r\n    }\r\n    mapping(address=>Detail) public Details;\r\n   function enter(string memory _name, uint256 _age, string memory _gender, string memory _state, string memory _district) public {\r\n        address _id = msg.sender;\r\n        Details[_id] = Detail(_name, _age, _gender, _state, _district);\r\n    }\r\n    function Get(address _id) public view returns (string memory, uint256, string memory, string memory, string memory) {\r\n        Detail storage detail = Details[_id]; //used storage type, mapped the Detail using storage type and a variable is declared \r\n        return (detail.name, detail.age, detail.gender, detail.state, detail.district);\r\n\r\n    }\r\n\r\n}",
  "sourcePath": "C:\\Users\\adith\\OneDrive\\Documents\\GitHub\\web3-Aadhaar\\contracts\\aadhaar.sol",
  "compiler": {
    "name": "solc",
    "version": "0.8.19+commit.7dd6d404.Emscripten.clang"
  },
  "schemaVersion": "3.4.15",
  "updatedAt": "2023-09-15T19:17:51.817Z",
  "networkType": "ethereum",
  "devdoc": {
    "kind": "dev",
    "methods": {},
    "version": 1
  },
  "userdoc": {
    "kind": "user",
    "methods": {},
    "version": 1
  }
}